:061000003FEF08F01200B2
:101008005182FACF01F0FBCF02F0E9CF03F0EACF2B
:1010180004F0E1CF05F0E2CF06F0D9CF07F0DACF40
:1010280008F0F3CF09F0F4CF0AF0F6CF0BF0F7CFC2
:101038000CF0F8CF0DF0F5CF0EF00EC0F5FF0DC097
:10104800F8FF0CC0F7FF0BC0F6FF0AC0F4FF09C099
:10105800F3FF08C0DAFF07C0D9FF06C0E2FF05C0EA
:10106800E1FF04C0EAFF03C0E9FF02C0FBFF01C0C3
:0A107800FAFF519211002FEF0FF064
:101D0A001200050E02016019D8A41200E6EC1BF0BD
:101D1A001200270E0F6EF50EE82EFED70F2EFCD7F7
:101D2A0000F01200000E00017A6F000E00017B6FB6
:101D3A001E0E176E010E65EC0FF01200949C949E15
:101D4A00939C93888B8C8B82000E0001856F000E0A
:101D5A0000018E6F1200010E00017027000E712320
:101D6A00722373234750D8A412003E2A3E50D8A4A7
:101D7A0012003E681200600E0001606F020E000140
:101D8A00616F000E0001656F400E646F0C0E00015A
:101D9A00666F1D0E0001676F0001638F1200226ECD
:101DAA002250D8A402D08B9C01D08B92FF0E1D6EBC
:101DBA001C68520E34EC10F0216E2250D8A402D0C6
:101DCA008B8C01D08B82215012000FC015F010C0ED
:101DDA0016F008D015C0D9FF16C0DAFF11C0DFFF10
:101DEA00154A162A1306D8A014061328F3E1142854
:101DFA00D8B41200EFD7608462986482010E476EED
:101E0A00000E3E6E000E1C6E750E1B6E000E1D6ED1
:101E1A00000E1E6E000E206E000E1F6E90EC10F06B
:101E2A001200000E476E000E1C6E740E1B6E000E22
:101E3A001D6E000E1E6E000E206E000E1F6E90ECC0
:101E4A0010F06492609401D0629462B4FDD7000EDF
:101E5A003E6E120001EE00F0B10EEE6AE806FDE1F8
:101E6A0000EE60F03D0EEE6AE806FDE100EE2AF0B3
:101E7A00270EEE6AE806FDE151905192000EF86EC7
:101E8A00000129EF17F08B688A68E40E946E938A32
:101E9A00000E7E6E000E7F6E000E0F6E010E0F6436
:101EAA0001D012000F50020D6C0EF324D96E000EF1
:101EBA00F420DA6EFF0EDE6EFF0EDD6E0F2AEED70D
:101ECA001A6E17A405D0000E0F6E1A5096EC11F078
:101EDA0017A205D0010E0F6E1A5096EC11F01A5087
:101EEA00010D530EF324186E0F0EF420196E18C04C
:101EFA00D9FF19C0DAFF17C0DFFF1200000E1B6EF0
:101F0A00000E1A6E0CD01A501424D96E1B501520CC
:101F1A00DA6E000EC8EC10F0DF6E1A4A1B2A165051
:101F2A00176E186A17501A5C1B50800A196E1850DF
:101F3A00800A1958D8B01200E6D711501210D8B436
:101F4A0018D0010E136E04D0D89011361236132A07
:101F5A0012AEFAD711500F5C12501058D8A004D004
:101F6A0011500F5E1250105AD89012321132132E9D
:101F7A00F1D70FC00FF010C010F012001C6E64B23F
:101F8A001200200E4B6001D0120000017A510001AC
:101F9A007B11D8B407D07AC0D9FF7BC0DAFF000121
:101FAA00DFBE1200020E1C6004D01C50C3EC1CF0F1
:101FBA001200040E1C6012001C50FE0F11EC1BF0E4
:101FCA0012000F0153A11ED03AC0D9FF3BC0DAFF5D
:101FDA00800EDE18D8A414D030C0D9FF31C0DAFF81
:101FEA00840EDE18D8A40CD03AC0D9FF3BC0DAFF61
:101FFA000C0EDF6E3AC0D9FF3BC0DAFF000EDB8E53
:10200A000F015391629A120011C017F012C018F012
:10201A000FC015F010C016F019D017C0F6FF18C07F
:10202A00F7FFF86A15C0D9FF16C0DAFF020EF76487
:10203A0003D00800F55005D0F6CFE1FFF7CFE2FF55
:10204A00E750DF6E174A182A154A162A1306D8A02F
:10205A0014061328E2E11428D8B41200DED71E6E43
:10206A008EEC0EF0810EC8EC10F01E50C8EC10F089
:10207A001F0E146E000E156E020E166E83EC0FF014
:10208A008EEC0EF05A0E1F18D8A415D05D0E20182B
:10209A00D8A411D01C2805E11D28D8A402D0010E0D
:1020AA0012001D50C8EC10F01C50C8EC10F08EEC59
:1020BA000EF0010E1200000E1200020E4918D8A4EA
:1020CA0003D0E8EC18F01200000E496E4550D8A46F
:1020DA001FD020EE01F03850D9263950DA22400EAE
:1020EA00DF6E20EE02F03850D9263950DA22200E5F
:1020FA00DE6E020EDD6E38C0D9FF39C0DAFF0C0E73
:10210A00DF6E38C0D9FF39C0DAFF000EDB8E12004D
:10211A00000E456E12000ED0010E85EC0EF0120074
:10212A00020E85EC0EF0120097EC0EF0120045EC50
:10213A0015F012001BC021F01CC022F02250000A28
:10214A00D8B404D07F0AD8A412001AD02150010AA8
:10215A00D8B4EAD7030AD8B41200010AD8B4E7D728
:10216A00060AD8B41200770AD8B41200010AD8B401
:10217A001200070AD8B4D4D7010AD8A41200CCD7BF
:10218A002150FF0A1200116E000E126E000E136E1D
:10219A00070E136401D02DD013C00FF011C010F038
:1021AA000F2A02D0D89010320F2EFCD7010E10162B
:1021BA00103210328B5010187F0B10188B6E8A9CBD
:1021CA00120EE82EFED713C00FF081A803D0106AB2
:1021DA00102A01D0106A0F2A02D0D89010360F2E7A
:1021EA00FCD7105012128A8C120EE82EFED7132A30
:1021FA00CFD72D0EE82EFED712501200000E4A6ECF
:10220A00000E436E000E406E000E3F6E000E456ECD
:10221A00000E496E30C0D9FF31C0DAFF7F0EDF16DB
:10222A00040E3018306E3150316E30C0D9FF31C0D3
:10223A00DAFF7F0EDF16040E3018306E3150316E21
:10224A0038C0D9FF39C0DAFF7F0EDF16000E2D6EB7
:10225A00000E2F6E000E2E6E000E0001636F000E30
:10226A000001656F000E646FFAEC13F0000E1C6E2D
:10227A00030E1B6E000E1D6E000E1E6E000E206EEB
:10228A00000E1F6E90EC10F02FEC16F01200286E64
:10229A00000E266E2850D8A402D08B9C01D08B92B7
:1022AA002850D8A402D08B8601D08B8821C01CF07C
:1022BA0022C01DF0570E34EC10F00009D8B423D018
:1022CA00000E276E800E276401D00DD02750010D15
:1022DA00000EF324D96E010EF420DA6EDF50C8EC3A
:1022EA0010F0272AEFD78EEC0EF0230E146E000E94
:1022FA00156E030E166E83EC0FF0470E2518D8A440
:10230A0002D0010E266E2850D8A402D08B8C01D0A0
:10231A008B822850D8A402D08B9601D08B98265055
:10232A001200146E000E156E020E166E0F50106E0D
:10233A00116AD890103611361450126E136AD8905A
:10234A0012361336D8901236133610501226115000
:10235A001322D89012361336D890123613361250EA
:10236A0015261350162215C0D9FF16C0DAFFDF9EB4
:10237A000F50D8A407D01450020D740EF324D96E4E
:10238A00000E06D01450020D300EF324D96E000E42
:10239A00F420DA6E15C0DEFF16C0DDFF15C0D9FFC6
:1023AA0016C0DAFFDF9C20EE04F01550D92616502D
:1023BA00DA22DF8C1200000E406E000E3F6E020E13
:1023CA004918D8A41FD020EE01F03850D926395028
:1023DA00DA22400EDF6E20EE02F03850D92639504C
:1023EA00DA22600EDE6E020EDD6E38C0D9FF39C009
:1023FA00DAFF480EDF6E38C0D9FF39C0DAFF000EA7
:10240A00DB8E12002E500201265D2F500201275941
:10241A00D8B004D026C22EF027C22FF093EC13F0C6
:10242A0020EE02F03050D9263150DA22600EDE6EEC
:10243A00020EDD6E30C0D9FF31C0DAFF480EDF6E02
:10244A0030C0D9FF31C0DAFF000EDB8E12002D0E2C
:10245A00446E4EC0A5F0FD0E0001A517D8A43ED0CB
:10246A004EC0A5F00001D890A5333F0E0001A51774
:10247A000001A551040D000EF3243A6E020EF42059
:10248A003B6E3AC038F03BC039F0040E3818386E4B
:10249A003950396E3AC0D9FF3BC0DAFFDF30E83233
:1024AA000F0B0D0AD8A417D0200E0F6E020E106E55
:1024BA0020EE02F03A50D9263B50DA22DECF11F054
:1024CA00DDCF12F0000E146E080E136E09EC10F038
:1024DA0003EC11F0120062EC10F012004E50FD0BEA
:1024EA00040AD8A41200B8EC15F01200000E02017A
:1024FA00606F000E0201616F38D02D8E4804D8A497
:10250A0040D0020160833DD02D8E3BD02D8E02013A
:10251A0024BF0BD0020124510F0B0F6E0F50020D76
:10252A00740EF324D96E000E0AD0020124510F0B47
:10253A000F6E0F50020D300EF324D96E000EF420E8
:10254A00DA6EDECF10F0DDCF11F010C0D9FF11C066
:10255A00DAFFDFAE16D010C0D9FF11C0DAFFDFA450
:10256A0010D0010E0201606F0CD0020120511F0B26
:10257A00000AD8B4C2D7010AD8B4C6D7030AD8B455
:10258A00C5D72DAE1200600E2A6E020E2B6E2D805C
:10259A00020E2E6E12004250D8A41200010E426E94
:1025AA004150D8A41200010E416E020E4918D8A457
:1025BA0015D020EE01F03050D9263150DA22000E23
:1025CA00DF6E30C0D9FF31C0DAFF480EDF6E30C08F
:1025DA00D9FF31C0DAFF000EDB8E12004904D8A4FD
:1025EA001200000E456E20EE01F03A50D9263B50FB
:1025FA00DA22400EDF6E20EE02F03A50D9263B5026
:10260A00DA22200EDE6E020EDD6E3AC0D9FF3BC022
:10261A00DAFF040EDF6E3AC0D9FF3BC0DAFF000EC4
:10262A00DB8E010E456E20EE01F03850D926395066
:10263A00DA22400EDF6E20EE02F03850D9263950E9
:10264A00DA22200EDE6E020EDD6E38C0D9FF39C0E6
:10265A00DAFF800EDF6E120068C013F069C014F052
:10266A006AC015F06BC016F0030E8B12000E176EBF
:10267A000F0E176401D02DD08B808B928B9017C0D0
:10268A000FF082A402D0010E01D0000E106E116A62
:10269A000F2A03D0D890103611360F2EFBD71050C0
:1026AA0013121150141217C00FF081AA02D0010E92
:1026BA0001D0000E106E116A0F2A03D0D89010367E
:1026CA0011360F2EFBD71050151211501612172A59
:1026DA00CFD78B82000E186E010E186401D012003B
:1026EA001850020D130EF324D96E000EF420DA6E80
:1026FA00DECF0FF0DDCF10F00F1C116E101C126E22
:10270A001850020D6C0EF324D96E000EF420DA6E06
:10271A0011C0DEFF12C0DDFF182ADED7400E0F6E91
:10272A002F5010E1400E2E5CD8B00CD02EC00FF006
:10273A004A50D8A402D0010E04D04A04D8A402D028
:10274A00020E4A6E0F502E5E000E2F5A20EE01F036
:10275A003050D9263150DA220FC0DFFF600E000157
:10276A00806F020E0001816F2DA01CD03AD02AC0C2
:10277A00F6FF2BC0F7FFF86A80C0D9FF81C0DAFFE5
:10278A00020EF76403D00800F55005D0F6CFE1FF3A
:10279A00F7CFE2FFE750DF6E2A4A2B2A0001804B6F
:1027AA00812B0F060F50D8B41200E1D72AC0F6FFCA
:1027BA002BC0F7FFF86A80C0D9FF81C0DAFF020E8A
:1027CA00F76403D00800F55005D0F6CFE1FFF7CF44
:1027DA00E2FFE750DF6E2A4A2B2A0001804B812B49
:1027EA000F060F50D8B41200E1D702012039E8329F
:1027FA00030B0009D8A4120043D02D8E080E4B6E8D
:10280A001200B1EC17F0120067EC14F01200500E2F
:10281A002A6E000E2B6E2D80010E2E6E2D8E12004A
:10282A007BEC12F01200CDEC1DF0120002012451D3
:10283A00010D4F0EF3242A6E000EF4202B6E2D800C
:10284A00010E2E6E2D8E12002D8E02012451010DC5
:10285A004F0EF324D96E000EF420DA6E22C2DFFF87
:10286A001200000E1C6E020E1B6E000E1D6E000E74
:10287A001E6E000E206E000E1F6E90EC10F01200FD
:10288A0002012151000AD8B4CBD7010AD8B4CBD758
:10289A00020AD8B4C8D7060AD8B4AFD7030AD8B43C
:1028AA00B0D7010AD8B4DDD70F0AD8B4B0D7010A15
:1028BA00D8B4AAD7030AD8B4B9D7010AD8B4C4D7A6
:1028CA00070A12002D8E540E0F6E0F0E106E000E98
:1028DA00126E000E116E000E146E010E136EEAECEB
:1028EA000EF0000E0F6E020E106E000E126E000E2B
:1028FA00116E000E146E200E136EEAEC0EF0648C4C
:10290A00000E236E010E236401D016D02350010D50
:10291A00360EF324D96E000EF420DA6E000EDF6E46
:10292A002350010D7E0EF324D96E000EF420DA6EC8
:10293A00000EDF6E232AE6D74F0E0F6E000E106EC2
:10294A00000E126E000E116E000E146E010E136E42
:10295A00EAEC0EF0649C080E306E020E316E000E28
:10296A003A6E020E3B6E3AC038F03BC039F022C2D2
:10297A0050F05050D8A403D0100E4B6E1200000E27
:10298A001C6E010E1B6E500E1D6E000E1E6E000E8A
:10299A00206E010E1F6E90EC10F0200E4B6E12008E
:1029AA00266E000E236E2650D8A402D08B9C01D02E
:1029BA008B922650D8A402D08B8601D08B8821C056
:1029CA001CF022C01DF0520E34EC10F00009D8A4FD
:1029DA000FD0000E0F6E010E106EE60E116E3F0E36
:1029EA00126E000E146E100E136E09EC10F03AD02F
:1029FA00000EC8EC10F0246E8EEC0EF0000EC8EC3F
:102A0A0010F0256E5D0E2518D8B416D0000E0F6E84
:102A1A00010E106EF50E116E3F0E126E000E146E40
:102A2A00080E136E09EC10F024C008F125C009F154
:102A3A00000E01010A6F16D08EEC0EF0240E146EF1
:102A4A00000E156E020E166E83EC0FF08EEC0EF071
:102A5A00000E146E010E156E810E166E83EC0FF0C9
:102A6A00010E236E2650D8A402D08B8C01D08B8203
:102A7A002650D8A402D08B9601D08B9823501200EE
:102A8A00020120511F0BE806D8A4120002012451AA
:102A9A00D8A41200060E02012119D8B415D01DD0EF
:102AAA00980E2A6E3F0E2B6E000E2F6E090E0AD05C
:102ABA00C00E2D6E12D04F0E2A6E3E0E2B6E000ED9
:102ACA002F6EE30E2E6EF4D702012351210AD8B4D9
:102ADA00E7D7030AD8B4EFD7010A02012039E8324E
:102AEA00030BE806D8A4120029D0C0EC0EF012009D
:102AFA004D0E2A6E000E2B6E000E2F6E010E2E6EDC
:102B0A00C10E2D6E1200800E2D6E23C24DF04DC0E7
:102B1A000FF00201225102EC08F012004C0E2A6E4C
:102B2A00000E2B6E000E2F6E010E2E6E810E2D6E74
:102B3A001200800E2D6E22C24CF0120002012151A9
:102B4A00010AD8B41200030AD8B4D2D7010AD8B4F9
:102B5A00E5D70A0AD8B4C9D7030AD8B4D4D7010A20
:102B6A00D8A41200E6D730C0D9FF31C0DAFF000E70
:102B7A00DFBC010E296E040E3018306E3150316EF2
:102B8A00080E4B18D8A40DD0020122517F0B0F0159
:102B9A005C6F0F015C51D8B402D0100E01D0040E44
:102BAA004B6E4904D8A43AD020EE02F03050D92610
:102BBA003150DA22600EDE6E020EDD6E93EC13F0F7
:102BCA00020E4A18D8A40DD030C0D9FF31C0DAFF9E
:102BDA00040EDF6E30C0D9FF31C0DAFF000EDB8E83
:102BEA0012002950D8A40DD030C0D9FF31C0DAFF65
:102BFA00480EDF6E30C0D9FF31C0DAFF000EDB8E1F
:102C0A00120030C0D9FF31C0DAFF080EDF6E30C0C3
:102C1A00D9FF31C0DAFF000EDB8E1200000163AF6C
:102C2A0016D00001665100016711D8B40ED020EE0B
:102C3A0066F001D80AD00500FA6EDE50FD6EDE504D
:102C4A00FE6EF850FF6EFA5012000001639F000EEC
:102C5A00496E120064982DBE39D0000163AF0BD0C3
:102C6A00020E496E3F50D8B4E0EC11F0000E416EEE
:102C7A00000E426E120020EE01F03850D92639506B
:102C8A00DA22400EDF6E20EE02F03850D926395093
:102C9A00DA22200EDE6E020EDD6E38C0D9FF39C090
:102CAA00DAFF0C0EDF6E38C0D9FF39C0DAFF000E2A
:102CBA00DB8E30C0D9FF31C0DAFF040EDF6E30C0C0
:102CCA00D9FF31C0DAFF000EDB8E1200020120AFFD
:102CDA0010D0010E496E4050D8B4E0EC11F0000E4D
:102CEA00416E000E426E4350D8A41200D0EC12F08E
:102CFA001200020E496E20EE01F03850D9263950E2
:102D0A00DA22400EDF6E20EE02F03850D926395012
:102D1A00DA22200EDE6E020EDD6E38C0D9FF39C00F
:102D2A00DAFF040EDF6E38C0D9FF39C0DAFF000EB1
:102D3A00DB8E000E416E000E426E4350D8A4120084
:102D4A00D0EC12F01200176E0F50D8B407D01750FB
:102D5A00020D300EF324D96E000E06D01750020D64
:102D6A00740EF324D96E000EF420DA6EDECF18F05A
:102D7A00DDCF19F018501910D8A405D0000E0F6E27
:102D8A00000E106E120020EE02F01850D9261950CB
:102D9A00DA2210C0DEFF11C0DDFF20EE01F018506C
:102DAA00D9261950DA2212C0DFFF18C0D9FF19C07C
:102DBA00DAFF400EDF1618C0D9FF19C0DAFF000E7D
:102DCA00DB8618C0D9FF19C0DAFF000EDB8E0F5060
:102DDA00D8B418D01750020D300EF324D96E000E55
:102DEA00F420DA6EDECF13F0DDCF14F0040E1318E0
:102DFA00156E1450166E1750020D300EF324D96E4C
:102E0A00000E17D01750020D740EF324D96E000E5F
:102E1A00F420DA6EDECF13F0DDCF14F0040E1318AF
:102E2A00156E1450166E1750020D740EF324D96ED7
:102E3A00000EF420DA6E15C0DEFF16C0DDFF18C0E2
:102E4A000FF019C010F01200000E0001AB6F000E57
:102E5A0085EC0EF0000E3D6E41EC18F048EC0FF0D8
:102E6A00A3EC0EF090EC19F0200E4B6001D0FAD7CB
:102E7A0064B2F8D70001AB2B060E0001AB6503D094
:102E8A00000E0001AB6F00017C510001A76F000129
:102E9A007D510001A86F00017C4B7D2B0001A851D8
:102EAA0005E1330E0001A75DD8A008D031EC13F07C
:102EBA00000E00017D6F000E7C6F14D07CC00FF0F5
:102ECA007DC010F0000E126E320E116EA2EC0FF0E1
:102EDA000F501010D8A406D0000E42EC1AF0010EC2
:102EEA0042EC1AF0010E0001A96F00016D390F0BB7
:102EFA000009D8B408D05A0E00018519D8B403D0F5
:102F0A00000E0001A96F0001A9B102D08B9601D071
:102F1A008B86010E0001AA6F00016F390F0B0009A1
:102F2A00D8B408D05A0E00018E19D8B403D0000EB6
:102F3A000001AA6F0001AA513D100001A76F00010C
:102F4A00A73B8B500001A719EF0BA7198B6E000145
:102F5A00AB51C3EC0FF086D7800E02012019D8A41A
:102F6A001200C00E2D6E7CD0A80E2A6E3F0E2B6E5C
:102F7A00000E2F6E120E2E6E120002012251D8A4DC
:102F8A003ED002012251020D4D0EF324F66E3E0E82
:102F9A00F420F76E0900F5CF2AF00A00F5CF2BF0DE
:102FAA00020E2A240F6E000E2B20106E0FC0F6FFA1
:102FBA0010C0F7FFF86A020EF76403D00800F55054
:102FCA0005D0F6CFE1FFF7CFE2FFE7502E6E030EF2
:102FDA002A240F6E000E2B20106E0FC0F6FF10C0B1
:102FEA00F7FFF86A020EF76403D00800F55005D01F
:102FFA00F6CFE1FFF7CFE2FFE7502F6E1200000E87
:10300A002D6E1200070E0201226124D00201225104
:10301A00020D3F0EF324F66E3E0EF420F76E090001
:10302A00F5CF2AF00A00F5CF2BF02AC0F6FF2BC005
:10303A00F7FFF86A020EF76403D00800F55005D0CE
:10304A00F6CFE1FFF7CFE2FFE7500F6E0F502E6E7B
:10305A002F6A1200000E2D6E1200000E2D6E120045
:10306A0002012351010AD8B47FD7030AD8B485D7FD
:10307A00010AD8B4C7D7F1D7A094000E0F015F6F29
:10308A00000E626E000E0F01536F540E0F6E0F0E7C
:10309A00106E000E126E000E116E000E146E010EEE
:1030AA00136EEAEC0EF0160E616E9F0E0F015B6F47
:1030BA007B0E606E000E176E070E176401D00ED0DD
:1030CA001750040D000EF324D96E020EF420DA6EA6
:1030DA00DE6ADE6ADE6ADD6A172AEED7648C000EC3
:1030EA000F015C6F6498649C6296000E2D6E000E50
:1030FA000001636F000E0001656F000E646F62B617
:10310A00F3D7010E426E010E416E000E406E000EA4
:10311A003F6E000E476E000E176E010E176401D047
:10312A002ED01750020D300EF324D96E000EF42063
:10313A00DA6E000EDE6E000EDD6E1750020D740E92
:10314A00F324D96E000EF420DA6E000EDE6E000E45
:10315A00DD6E1750010D360EF324D96E000EF420E1
:10316A00DA6E000EDF6E1750010D7E0EF324D96E53
:10317A00000EF420DA6E000EDF6E172ACED7080E84
:10318A00306E020E316E160E0F01536F020E0201DF
:10319A00036F200E026F400E0201016F040E02013E
:1031AA00006F0201008F000E506E000E0001706F5A
:1031BA00000E716F000E726F000E736F000E3E6E7E
:1031CA00000E4B6E120020EE01F03A50D9263B5009
:1031DA00DA22DF500001A46F0001A4510001645DEE
:1031EA00000E6559D8A064C0A4F00001A4510001E2
:1031FA00645F000E655B000E0001A36F14D000012E
:10320A00A351010D600EF324D96E020EF420DA6E7A
:10321A0060C0E1FF61C0E2FFDFCFE7FF0001604B62
:10322A00612B0001A32B0001A4510001A35DD8A0CA
:10323A00E6D70001645100016511D8B432D020EEFE
:10324A0001F03850D9263950DA22400EDF6E20EECE
:10325A0002F03850D9263950DA22600EDE6E020E9C
:10326A00DD6E3AC0D9FF3BC0DAFFDFBC0DD038C0F3
:10327A00D9FF39C0DAFF480EDF6E38C0D9FF39C02E
:10328A00DAFF000EDB8E120038C0D9FF39C0DAFF30
:10329A00080EDF6E38C0D9FF39C0DAFF000EDB8EA8
:1032AA00120020EE01F03850D9263950DA22400EA9
:1032BA00DF6E20EE02F03850D9263950DA22200E7D
:1032CA00DE6E020EDD6E38C0D9FF39C0DAFF040E99
:1032DA00DF6E38C0D9FF39C0DAFF000EDB8E00017D
:1032EA00665100016711D8B40ED020EE66F001D8FD
:1032FA000AD00500FA6EDE50FD6EDE50FE6EF85002
:10330A00FF6EFA5012000001639F4350D8A41200C6
:10331A00D0EC12F012004B50D8A411D0000E646EFB
:10332A00000E606E160E616E9F0E0F015B6F7B0EB4
:10333A00606E01D0648664A6FDD7010E4B6E4B0405
:10334A00D8B464BA08D0000E626E000E606E608057
:10335A006088020E4B6E62B460A403D0629416ECCD
:10336A000FF064A202D0A194120062B060A005D04E
:10337A0041EC18F0040E4B6E629062B860A802D05D
:10338A0000EC0FF062AC1AD060AC0ED0000E1C6ECE
:10339A00730E1B6E000E1D6E000E1E6E000E206E4A
:1033AA00010E1F6E90EC10F0629CB0EC0EF04450CF
:1033BA00D8A444064450D8B4D0EC12F062BA60AA39
:1033CA0002D0E6EC0FF062B260A210D07F0E1C6E43
:1033DA001B68000E1D6E000E1E6E000E206E010E82
:1033EA001F6E90EC10F0000E0F015F6F040E4B6021
:1033FA0002D0A194120060A63ED0000E0001A66F72
:10340A00030E0001A66501D036D062A634D063CF80
:10341A004EF04E30E832E8320F0B466E62964EB4EA
:10342A000AD04650010D7E0EF324D96E000EF42008
:10343A00DA6E000108D04650010D360EF324D96E1B
:10344A00000EF420DA6EDF704650D8A403D02CECBC
:10345A0012F00ED0000E1C6E720E1B6E4E0E1D6EFA
:10346A00000E1E6E000E206E000E1F6E90EC10F005
:10347A000001A62BC5D7A1941200206E2050D8A413
:10348A0002D08B9C01D08B922D0EE82EFED7010E16
:10349A00C8EC10F02050090D840EF324D96E000EEA
:1034AA00F420DA6E420EC8EC10F0DF6EDE28D8A4E3
:1034BA000FD02050090D010EF326000EF422840EBF
:1034CA00F324D96E000EF420DA6E000EDF6E54D0AB
:1034DA002050090D010EF326000EF422840EF32467
:1034EA00D96E000EF420DA6E000EC8EC10F0DF6E12
:1034FA002050090D010EF326000EF422840EF32447
:10350A00D96E000EF420DA6E5A0EDE18D8A434D022
:10351A002050090D020EF326000EF422840EF32425
:10352A00146E000EF420156E060E166E83EC0FF064
:10353A002050090D020EF326000EF422840EF32405
:10354A00D96E000EF420DA6EDECF1CF0DDCF1DF04E
:10355A001C1C1E6E1D1C1F6E2050090D020EF32628
:10356A00000EF422840EF324D96E000EF420DA6ED3
:10357A001EC0DEFF1FC0DDFF2050D8A402D08B8CF6
:10358A0001D08B822050090D010EF326000EF42281
:10359A00840EF324D96E000EF420DA6E5A0EDE1869
:1035AA00D8B42BD02050090D080EF326000EF422B1
:1035BA00840EF324D96E000EF420DA6E1E0EDF603C
:1035CA0012002050090D010EF326000EF422840E7B
:1035DA00F324D96E000EF420DA6E5A0EDF6E2050F4
:1035EA00090D080EF326000EF422840EF324D96E78
:1035FA00000EF420DA6EDF2A12002050090D080EA0
:10360A00F326000EF422840EF324D96E000EF42061
:10361A00DA6E000EDF6E12001B6E1B50030F0201E2
:10362A00A06F1B50090D010EF326000EF422840E22
:10363A00F324D96E000EF420DA6E5A0EDE18D8A4DE
:10364A009FD01B50090D020EF326000EF422840EA1
:10365A00F324D96E000EF420DA6EDECFA1F2DDCFAC
:10366A00A2F21B50090D840EF324D96E000EF42029
:10367A00DA6E730EDE18D8B40CD01B50090D840E06
:10368A00F324D96E000EF420DA6E530EDE18D8A495
:10369A0017D0A30E0F6E020E106E1B50090D040EEA
:1036AA00F326000EF422840EF324116E000EF42089
:1036BA00126E000E146E040E136E09EC10F071D027
:1036CA000201A199A19BA19DA19F1B50090D020E68
:1036DA00F326000EF422840EF324D96E000EF42091
:1036EA00DA6E0001DFAE02D0010E01D0000E800DAD
:1036FA00F35000081A6E1B50090D020EF326000E35
:10370A00F422840EF324D96E000EF420DA6E00013E
:10371A00DFAA02D0010E01D0000E7F0DF3501A2449
:10372A00800F0201A56F1B50090D020EF326000E31
:10373A00F422840EF324D96E000EF420DA6E00010E
:10374A00DFA802D0010E01D0000E800DF350000850
:10375A001A6E1B50090D020EF326000EF422840E77
:10376A00F324D96E000EF420DA6E0001DFAC02D029
:10377A00010E01D0000E7F0DF3501A24800F09D0DC
:10378A00000E0201A26F000EA16F7F0E0201A56F4B
:10379A007F0E0201A66F7F0E0201A36F7F0E020148
:1037AA00A46F010E0F6EA00E106E020E116E070EA0
:1037BA00126E010EA8EC16F00FC07AF010C07BF062
:1037CA00120061C2A2F0A3D03D1EB3D0020164511F
:1037DA0000019E6F9D6B0201635100019F6FA06BF8
:1037EA0000019D5100019F11346E00019E5100019C
:1037FA00A011356E65C23CF09CD0000ED4EC0EF0E0
:10380A000201A36F010ED4EC0EF00201A46F34C0C2
:10381A00A5F235500201A66F3CC0A7F28AD034C087
:10382A0021F035C022F03C50D5EC14F00009D8A4A0
:10383A0004D000019D6B9D2B02D000019D6B000EF0
:10384A009DB1800E9D6F00019D510001A213344A63
:10385A00352A000E0001A16F29D062C280F134C05E
:10386A0021F035C022F03C504CEC11F00009D8A4EC
:10387A0004D000019D6B9D2B02D000019D6B000EB0
:10388A009DB1800E9D6F00019D510001A213344A23
:10389A00352A4FD00001A251030B2B0DF3CFA1F013
:1038AA000001A2390F0B040AD8A414D0A30E0F6E7C
:1038BA00020E106E0001A151010D000EF324116ECB
:1038CA00010EF420126E000E146E2B0E136E09EC0C
:1038DA0010F02FD00001A2390F0B050AD8A414D07A
:1038EA000001A151010D000EF3240F6E010EF42008
:1038FA00106E630E116E020E126E000E146E2B0EF7
:10390A00136E09EC10F012000001A26912D0000136
:10391A00A251100AD8B458D7010AD8B457D7030A03
:10392A00D8B46BD7010AD8B47AD7070AD8B495D7CE
:10393A00B1D7050E0201A06F80C1A2F2A2C0A1F206
:10394A00010E0F6EA00E106E020E116E2E0E126E6A
:10395A00010EA8EC16F00FC07AF010C07BF0960E9C
:10396A000F6E000E106EA00E116E020E126E000E79
:10397A00146E070E136E09EC10F012001B6E1B2852
:10398A000201A06F1B50020D010EF326000EF42255
:10399A006C0EF324D96E000EF420DA6E0001DF38C3
:1039AA000F0B0009D8A4DBD01B50020D6C0EF324B8
:1039BA00D96E000EF420DA6E0001DFA003D00201F6
:1039CA00A18302D00201A1931B50020D010EF3261E
:1039DA00000EF4226C0EF324D96E000EF420DA6E77
:1039EA000001DFA003D00201A18102D00201A1914E
:1039FA001B50020D010EF326000EF4226C0EF32466
:103A0A00D96E000EF420DA6E0001DFA203D00201A3
:103A1A00A18502D00201A1951B50020D6C0EF32460
:103A2A00D96E000EF420DA6E0001DFA203D0020183
:103A3A00A18702D00201A1971B50020D6C0EF3243C
:103A4A00D96E000EF420DA6E0001DFA603D002015F
:103A5A00A18902D00201A1991B50020D6C0EF32418
:103A6A00D96E000EF420DA6E0001DFA403D0020141
:103A7A00A18B02D00201A19B1B50020D010EF3265D
:103A8A00000EF4226C0EF324D96E000EF420DA6EC6
:103A9A000001DFA603D00201A18D02D00201A19D7F
:103AAA001B50020D010EF326000EF4226C0EF324B5
:103ABA00D96E000EF420DA6E0001DFA403D00201F1
:103ACA00A18F02D00201A19F1B50020D6C0EF3249C
:103ADA00D96E000EF420DA6E0001DFAC02D0010EBE
:103AEA0001D0000E800DF35000081A6E1B50020D13
:103AFA006C0EF324D96E000EF420DA6E0001DFAEEC
:103B0A0002D0010E01D0000E7F0DF3501A24800F4F
:103B1A000201A26F1B50020D6C0EF324D96E000E27
:103B2A00F420DA6E0001DFA802D0010E01D0000EE7
:103B3A00800DF35000081A6E1B50020D6C0EF32410
:103B4A00D96E000EF420DA6E0001DFAA02D0010E4F
:103B5A0001D0000E7F0DF3501A24800F07D0000EFB
:103B6A000201A16F7F0E0201A26F7F0E0201A36FF5
:103B7A00010E0F6EA00E106E020E116E040E126E62
:103B8A00010EA8EC16F00FC07AF010C07BF01200FC
:103B9A0002012205D8A410D0020120511F0B0009EE
:103BAA00D8A40AD02D8E030E02012119D8A402D05E
:103BBA00010E01D0000E486E02012251D8A4120053
:103BCA00020120511F0B020AD8A41200020124513B
:103BDA000F0B0009D8B41200020124510F0B236EF7
:103BEA00020E23601200200E4B18D8A412002D8E4C
:103BFA00020124BF1BD0020124510F0B236E235054
:103C0A00020D740EF324D96E000EF420DA6EDECFA4
:103C1A0027F0DDCF28F0020124510F0B236E235029
:103C2A00010D7E0EF324D96E000E1AD00201245122
:103C3A000F0B236E2350020D300EF324D96E000EA3
:103C4A00F420DA6EDECF27F0DDCF28F0020124510E
:103C5A000F0B236E2350010D360EF324D96E000E7E
:103C6A00F420DA6EDF50266E26B006D0FB0E27143B
:103C7A00276EFF0E281404D0040E2710276E285032
:103C8A00286E020124BF0BD0020124510F0B236EB0
:103C9A002350020D740EF324D96E000E0AD00201CD
:103CAA0024510F0B236E2350020D300EF324D96ECC
:103CBA00000EF420DA6E27C0DEFF28C0DDFF030EF7
:103CCA0002012119D8A431D027C0D9FF28C0DAFFB0
:103CDA00DFAE1ED0020124BF0ED0020124510F0B09
:103CEA00236E2350010D7E0EF324D96E000EF420AC
:103CFA00DA6E00010CD0020124510F0B236E2350FF
:103D0A00010D360EF324D96E000EF420DA6EDF822E
:103D1A0027C0D9FF28C0DAFF000EDB8427C0D9FFED
:103D2A0028C0DAFF000EDB8E1200040E2718276E59
:103D3A002850286E27C0D9FF28C0DAFFDFAE1BD073
:103D4A0027C0D9FF28C0DAFF7F0EDF1627C0D9FFA8
:103D5A0028C0DAFF000EDB8C000E1C6E050E1B6EEF
:103D6A0027C01DF028C01EF0000E206E020E1F6E26
:103D7A0090EC10F006D027C0D9FF28C0DAFF000E59
:103D8A00DB8C040E2718276E2850286E26B206D020
:103D9A0027C0D9FF28C0DAFFDFAE33D0020124BF23
:103DAA000ED0020124510F0B236E2350010D7E0EFB
:103DBA00F324D96E000EF420DA6E00010CD0020151
:103DCA0024510F0B236E2350010D360EF324D96EA6
:103DDA00000EF420DA6EDF9227C0D9FF28C0DAFF7E
:103DEA003B0EDF16000E1C6E050E1B6E27C01DF063
:103DFA0028C01EF0000E206E020E1F6E90EC10F00E
:103E0A0006D027C0D9FF28C0DAFF3B0EDF16020111
:103E1A0024510F0B236E2350010D530EF324246EED
:103E2A000F0EF420256E24C0D9FF25C0DAFFFE0E3E
:103E3A00DF16120000E23F5E3F323FD83FCE3FC45A
:103E4A003FBA3F863F05010905A10185017903159E
:103E5A000025013500450175019508050919012953
:103E6A00088102050125FF45FF09300931750895CA
:103E7A00028102C005010905A10185027904150024
:103E8A00250135004501750195080509190129081B
:103E9A008102050125FF45FF0930093175089502A0
:103EAA008102C005010905A10185037905150025CF
:103EBA00013500450175019510050919012910817F
:103ECA0002050125FF45FF09320935093009317517
:103EDA000895048102C005010905A1018504790636
:103EEA0015002501350045017501951005091901CF
:103EFA0029108102050125FF45FF093209350930DC
:103F0A000931750895048102C00600FF0901A10163
:103F1A0085051901292D150026FF007508952D81A3
:103F2A00001901292D9100C02C03500049004300BB
:103F3A002000470061006D006500700061006400A8
:103F4A00200049006E00740065007200660061007E
:103F5A0063006500280352004700420041005F00E9
:103F6A00430052005400200053006F0066007400A2
:103F7A00770061007200650073002E0009022200BA
:103F8A000101008060090400000103000002092108
:103F9A001101000122E3000705810340000112011B
:103FAA00000200000040D8045E0001000102000186
:103FBA000A0350005300580032000A03500053000D
:103FCA00580031000A0353004600430032000A0336
:103FDA0053004600430031000403090453504920AA
:103FEA0053544152542045525200005253502045D6
:053FFA0052523D0000E1
:020000040020DA
:08000000FFFFFFFFFFFFFFFF00
:020000040030CA
:0E0000000032011EFF0081FF03C003E0034039
:00000001FF
