:061000003FEF08F01200B2
:101008005182FACF29F0FBCF2AF0E9CF2BF0EACFB3
:101018002CF0E1CF2DF0E2CF2EF0D9CF2FF0DACFA0
:1010280030F0F3CF31F0F4CF32F0F6CF33F0F7CF22
:1010380034F0F8CF35F0F5CF36F036C0F5FF35C0CF
:10104800F8FF34C0F7FF33C0F6FF32C0F4FF31C0F9
:10105800F3FF30C0DAFF2FC0D9FF2EC0E2FF2DC04A
:10106800E1FF2CC0EAFF2BC0E9FF2AC0FBFF29C023
:0A107800FAFF5192110035EF0FF05E
:101D16001200050E02016019D8A41200E6EC1BF0B1
:101D26001200270E376EF50EE82EFED7372EFCD79B
:101D360000F01200000E00017A6F000E00017B6FAA
:101D46001E0E3F6E010E6BEC0FF01200949C949EDB
:101D5600939C93888B8C8B82000E0001846F000EFF
:101D660000018D6F1200010E00017027000E712315
:101D7600722373231F50D8A41200162A1650D8A413
:101D8600120016681200600E0001606F020E00015C
:101D9600616F000E0001656F400E646F180E000142
:101DA600666F1D0E0001676F0001638F12004A6E99
:101DB6004A50D8A402D08B9C01D08B92FF0E456E60
:101DC6004468520E3AEC10F0496E4A50D8A402D03C
:101DD6008B8C01D08B824950120037C03DF038C041
:101DE6003EF008D03DC0D9FF3EC0DAFF39C0DFFF64
:101DF6003D4A3E2A3B06D8A03C063B28F3E13C2858
:101E0600D8B41200EFD7608462986482010E1F6E08
:101E1600000E166E000E446E750E436E000E456E75
:101E2600000E466E000E486E000E476E96EC10F0E1
:101E36001200000E1F6E000E446E740E436E000EEE
:101E4600456E000E466E000E486E000E476E96EC0E
:101E560010F06492609401D0629462B4FDD7000ED3
:101E6600166E120001EE00F0B10EEE6AE806FDE114
:101E760000EE60F03C0EEE6AE806FDE100EE01F0D1
:101E8600280EEE6AE806FDE151905192000EF86EBA
:101E96000001B1EF16F08B688A68E40E946E938A9F
:101EA600000E7E6E000E7F6E000E376E010E3764DA
:101EB60001D012003750020D6C0EF324D96E000EBD
:101EC600F420DA6EFF0EDE6EFF0EDD6E372AEED7D9
:101ED600426E3FA405D0000E376E42509CEC11F0C6
:101EE6003FA205D0010E376E42509CEC11F04250D5
:101EF600010D530EF324406E0F0EF420416E40C0C8
:101F0600D9FF41C0DAFF3FC0DFFF1200000E436E6B
:101F1600000E426E0CD042503C24D96E43503D20F8
:101F2600DA6E000ECEEC10F0DF6E424A432A3E50C7
:101F36003F6E406A3F50425C4350800A416E4050BB
:101F4600800A4158D8B01200E6D739503A10D8B4B2
:101F560018D0010E3B6E04D0D89039363A363B2A5B
:101F66003AAEFAD73950375C3A503858D8A004D030
:101F76003950375E3A50385AD8903A3239323B2E79
:101F8600F1D737C037F038C038F01200446E64B26B
:101F96001200200E236001D0120000017A510001C8
:101FA6007B11D8B407D07AC0D9FF7BC0DAFF000115
:101FB600DFBE1200020E446004D04450C3EC1CF095
:101FC6001200040E446012004450FE0F11EC1BF088
:101FD60012000F0153A11ED011C0D9FF12C0DAFFA3
:101FE600800EDE18D8A414D007C0D9FF08C0DAFFC7
:101FF600840EDE18D8A40CD011C0D9FF12C0DAFFA7
:102006000C0EDF6E11C0D9FF12C0DAFF000EDB8E98
:102016000F015391629A120039C03FF03AC040F066
:1020260037C03DF038C03EF019D03FC0F6FF40C083
:10203600F7FFF86A3DC0D9FF3EC0DAFF020EF7642B
:1020460003D00800F55005D0F6CFE1FFF7CFE2FF49
:10205600E750DF6E3F4A402A3D4A3E2A3B06D8A05B
:102066003C063B28E2E13C28D8B41200DED7466E97
:1020760094EC0EF0810ECEEC10F04650CEEC10F043
:10208600470E3C6E000E3D6E020E3E6E89EC0FF062
:1020960094EC0EF05A0E4718D8A415D05D0E4818C9
:1020A600D8A411D0442805E14528D8A402D0010EB1
:1020B60012004550CEEC10F04450CEEC10F094ECEB
:1020C6000EF0010E1200000E1200020E2118D8A406
:1020D60003D0E8EC18F01200000E216E1D50D8A4B3
:1020E6001FD020EE01F00F50D9261050DA22400EF4
:1020F600DF6E20EE02F00F50D9261050DA22200EA5
:10210600DE6E020EDD6E0FC0D9FF10C0DAFF0C0EB8
:10211600DF6E0FC0D9FF10C0DAFF000EDB8E120093
:10212600000E1D6E12000ED0010E8BEC0EF012008A
:10213600020E8BEC0EF012009DEC0EF012004BEC32
:1021460015F0120043C049F044C04AF04A50000A54
:10215600D8B404D07F0AD8A412001AD04950010A74
:10216600D8B4EAD7030AD8B41200010AD8B4E7D71C
:10217600060AD8B41200770AD8B41200010AD8B4F5
:102186001200070AD8B4D4D7010AD8A41200CCD7B3
:102196004950FF0A1200396E000E3A6E000E3B6E71
:1021A600070E3B6401D02DD03BC037F039C038F064
:1021B600372A02D0D8903832372EFCD7010E38167F
:1021C600383238328B5038187F0B38188B6E8A9C11
:1021D600120EE82EFED73BC037F081A803D0386A2E
:1021E600382A01D0386A372A02D0D8903836372EA6
:1021F600FCD738503A128A8C120EE82EFED73B2AAC
:10220600CFD72D0EE82EFED73A501200000E226EC2
:10221600000E1B6E000E186E000E176E000E1D6E61
:10222600000E216E07C0D9FF08C0DAFF7F0EDF1649
:10223600040E0718076E0850086E07C0D9FF08C0BD
:10224600DAFF7F0EDF16040E0718076E0850086EB9
:102256000FC0D9FF10C0DAFF7F0EDF16000E046E26
:10226600000E066E000E056E000E0001636F000E76
:102276000001656F000E646F00EC14F0000E446EF2
:10228600030E436E000E456E000E466E000E486E3F
:10229600000E476E96EC10F0BEEC15F01200506E74
:1022A600000E4E6E5050D8A402D08B9C01D08B925B
:1022B6005050D8A402D08B8601D08B8849C044F0F8
:1022C6004AC045F0570E3AEC10F00009D8B423D0B6
:1022D600000E4F6E800E4F6401D00DD04F50010D91
:1022E600000EF324D96E010EF420DA6EDF50CEEC28
:1022F60010F04F2AEFD794EC0EF04B0E3C6E000E0A
:102306003D6E030E3E6E89EC0FF0470E4D18D8A4B5
:1023160002D0010E4E6E5050D8A402D08B8C01D044
:102326008B825050D8A402D08B9601D08B984E50F9
:1023360012003C6E000E3D6E020E3E6E3750386E39
:10234600396AD890383639363C503A6E3B6AD8905E
:102356003A363B36D8903A363B3638503A263950DC
:102366003B22D8903A363B36D8903A363B363A50EE
:102376003D263B503E223DC0D9FF3EC0DAFFDF9EE0
:102386003750D8A407D03C50020D740EF324D96EF2
:10239600000E06D03C50020D070EF324D96E000E37
:1023A600F420DA6E3DC0DEFF3EC0DDFF3DC0D9FF42
:1023B6003EC0DAFFDF9C20EE04F03D50D9263E50A9
:1023C600DA22DF8C1200000E186E000E176E020E57
:1023D6002118D8A41FD020EE01F00F50D926105096
:1023E600DA22400EDF6E20EE02F00F50D926105092
:1023F600DA22600EDE6E020EDD6E0FC0D9FF10C04F
:10240600DAFF480EDF6E0FC0D9FF10C0DAFF000EEC
:10241600DB8E120005500201265D06500201275987
:10242600D8B004D026C205F027C206F099EC13F006
:1024360020EE02F00750D9260850DA22600EDE6E32
:10244600020EDD6E07C0D9FF08C0DAFF480EDF6E48
:1024560007C0D9FF08C0DAFF000EDB8E12002D0E72
:102466001C6E26C0A4F0FD0E0001A417D8A43ED011
:1024760026C0A4F00001D890A4333F0E0001A41793
:102486000001A451040D000EF324116E020EF42077
:10249600126E11C00FF012C010F0040E0F180F6E5E
:1024A6001050106E11C0D9FF12C0DAFFDF30E832CB
:1024B6000F0B0D0AD8A417D0200E376E020E386EF9
:1024C60020EE02F01150D9261250DA22DECF39F072
:1024D600DDCF3AF0000E3C6E080E3B6E0FEC10F0AE
:1024E60009EC11F0120068EC10F012002650FD0BFA
:1024F600040AD8A4120037EC16F01200000E0201EE
:10250600606F000E0201616F38D0048E2004D8A4DB
:1025160040D0020160833DD0048E3BD0048E020180
:1025260024BF0BD0020124510F0B376E3750020D1A
:10253600740EF324D96E000E0AD0020124510F0B3B
:10254600376E3750020D070EF324D96E000EF420B5
:10255600DA6EDECF38F0DDCF39F038C0D9FF39C0BA
:10256600DAFFDFAE16D038C0D9FF39C0DAFFDFA4F4
:1025760010D0010E0201606F0CD0020120511F0B1A
:10258600000AD8B4C2D7010AD8B4C6D7030AD8B449
:10259600C5D704AE1200600E016E020E026E0480F4
:1025A600020E056E12001A50D8A41200010E1A6E01
:1025B6001950D8A41200010E196E020E2118D8A4C3
:1025C60015D020EE01F00750D9260850DA22000E69
:1025D600DF6E07C0D9FF08C0DAFF480EDF6E07C0FE
:1025E600D9FF08C0DAFF000EDB8E12002104D8A442
:1025F6001200000E1D6E20EE01F01150D926125069
:10260600DA22400EDF6E20EE02F01150D92612506B
:10261600DA22200EDE6E020EDD6E11C0D9FF12C068
:10262600DAFF040EDF6E11C0D9FF12C0DAFF000E0A
:10263600DB8E010E1D6E20EE01F00F50D9261050D4
:10264600DA22400EDF6E20EE02F00F50D92610502F
:10265600DA22200EDE6E020EDD6E0FC0D9FF10C02C
:10266600DAFF800EDF6E120068C03BF069C03CF0F6
:102676006AC03DF06BC03EF0030E8B12000E3F6E3B
:102686000F0E3F6401D02DD08B808B928B903FC074
:1026960037F082A402D0010E01D0000E386E396ADE
:1026A600372A03D0D89038363936372EFBD73850EC
:1026B6003B1239503C123FC037F081AA02D0010EBE
:1026C60001D0000E386E396A372A03D0D8903836D2
:1026D6003936372EFBD738503D1239503E123F2A35
:1026E600CFD78B82000E406E010E406401D01200DF
:1026F6004050020D3B0EF324D96E000EF420DA6E24
:10270600DECF37F0DDCF38F0371C396E381C3A6E25
:102716004050020D6C0EF324D96E000EF420DA6ED2
:1027260039C0DEFF3AC0DDFF402ADED7400E376EE5
:10273600065010E1400E055CD8B00CD005C037F04D
:102746002250D8A402D0010E04D02204D8A402D06C
:10275600020E226E3750055E000E065A20EE01F07C
:102766000750D9260850DA2237C0DFFF600E000175
:10277600806F020E0001816F04A01CD03AD001C008
:10278600F6FF02C0F7FFF86A80C0D9FF81C0DAFF02
:10279600020EF76403D00800F55005D0F6CFE1FF2E
:1027A600F7CFE2FFE750DF6E014A022A0001804BB5
:1027B600812B37063750D8B41200E1D701C0F6FF97
:1027C60002C0F7FFF86A80C0D9FF81C0DAFF020EA7
:1027D600F76403D00800F55005D0F6CFE1FFF7CF38
:1027E600E2FFE750DF6E014A022A0001804B812B8F
:1027F60037063750D8B41200E1D702012039E83243
:10280600030B0009D8A4120043D0048E080E236ED1
:102816001200B1EC17F012006DEC14F01200280E45
:10282600016E000E026E0480010E056E048E12000B
:1028360081EC12F01200CDEC1DF0120002012451C1
:10284600010D270EF324016E000EF420026E0480A3
:10285600010E056E048E1200048E02012451010D34
:10286600270EF324D96E000EF420DA6E22C2DFFFA3
:102876001200000E446E020E436E000E456E000EF0
:10288600466E000E486E000E476E96EC10F0120073
:1028960002012151000AD8B4CBD7010AD8B4CBD74C
:1028A600020AD8B4C8D7060AD8B4AFD7030AD8B430
:1028B600B0D7010AD8B4DDD70F0AD8B4B0D7010A09
:1028C600D8B4AAD7030AD8B4B9D7010AD8B4C4D79A
:1028D600070A1200048E540E376E0F0E386E000E65
:1028E6003A6E000E396E000E3C6E010E3B6EF0EC39
:1028F6000EF0000E376E020E386E000E3A6E000EA7
:10290600396E000E3C6E200E3B6EF0EC0EF0648CC1
:10291600000E4B6E010E4B6401D016D04B50010DCC
:102926000D0EF324D96E000EF420DA6E000EDF6E63
:102936004B50010D7E0EF324D96E000EF420DA6E94
:10294600000EDF6E4B2AE6D7270E376E000E386E66
:10295600000E3A6E000E396E000E3C6E010E3B6E96
:10296600F0EC0EF0649C080E076E020E086E000E68
:10297600116E020E126E11C00FF012C010F022C2BC
:1029860028F02850D8A403D0100E236E1200000E93
:10299600446E010E436E280E456E000E466E000E06
:1029A600486E010E476E96EC10F0200E236E120054
:1029B6004E6E000E4B6E4E50D8A402D08B9C01D0AA
:1029C6008B924E50D8A402D08B8601D08B8849C0FA
:1029D60044F04AC045F0520E3AEC10F00009D8A473
:1029E6000FD0000E376E010E386EE60E396E3F0EB2
:1029F6003A6E000E3C6E100E3B6E0FEC10F03AD0A5
:102A0600000ECEEC10F04C6E94EC0EF0000ECEECF8
:102A160010F04D6E5D0E4D18D8B416D0000E376E00
:102A2600010E386EF50E396E3F0E3A6E000E3C6E94
:102A3600080E3B6E0FEC10F04CC008F14DC009F1CA
:102A4600000E01010A6F16D094EC0EF04C0E3C6E8F
:102A5600000E3D6E020E3E6E89EC0FF094EC0EF009
:102A6600000E3C6E010E3D6E810E3E6E89EC0FF03F
:102A7600010E4B6E4E50D8A402D08B8C01D08B82A7
:102A86004E50D8A402D08B9601D08B984B50120092
:102A9600020120511F0BE806D8A41200020124519E
:102AA600D8A41200060E02012119D8B415D01DD0E3
:102AB600980E016E3F0E026E000E066E090E0AD0CB
:102AC600C00E046E12D04F0E016E3E0E026E000E48
:102AD600066EE30E056EF4D702012351210AD8B41F
:102AE600E7D7030AD8B4EFD7010A02012039E83242
:102AF600030BE806D8A4120029D0C6EC0EF012008B
:102B0600250E016E000E026E000E066E010E056E9B
:102B1600C10E046E1200800E046E23C225F025C07D
:102B260037F00201225102EC08F01200240E016E69
:102B3600000E026E000E066E010E056E810E046E0C
:102B46001200800E046E22C224F0120002012151EE
:102B5600010AD8B41200030AD8B4D2D7010AD8B4ED
:102B6600E5D70A0AD8B4C9D7030AD8B4D4D7010A14
:102B7600D8A41200E6D7649804BE39D0000163AF2A
:102B86000BD0020E216E1750D8B4E6EC11F0000EF1
:102B9600196E000E1A6E120020EE01F00F50D926A3
:102BA6001050DA22400EDF6E20EE02F00F50D926CA
:102BB6001050DA22200EDE6E020EDD6E0FC0D9FF37
:102BC60010C0DAFF0C0EDF6E0FC0D9FF10C0DAFF9F
:102BD600000EDB8E07C0D9FF08C0DAFF040EDF6ED9
:102BE60007C0D9FF08C0DAFF000EDB8E1200020113
:102BF60020AF10D0010E216E1850D8B4E6EC11F0BB
:102C0600000E196E000E1A6E1B50D8A41200D6ECD8
:102C160012F01200020E216E20EE01F00F50D9269E
:102C26001050DA22400EDF6E20EE02F00F50D92649
:102C36001050DA22200EDE6E020EDD6E0FC0D9FFB6
:102C460010C0DAFF040EDF6E0FC0D9FF10C0DAFF26
:102C5600000EDB8E000E196E000E1A6E1B50D8A4E5
:102C66001200D6EC12F0120007C0D9FF08C0DAFF36
:102C7600000EDFBC010E0001A26F040E0718076EDE
:102C86000850086E080E2318D8A40DD00201225150
:102C96007F0B0F015C6F0F015C51D8B402D0100E90
:102CA60001D0040E236E2104D8A43CD020EE02F0FD
:102CB6000750D9260850DA22600EDE6E020EDD6E4F
:102CC60099EC13F0020E2218D8A40DD007C0D9FF34
:102CD60008C0DAFF040EDF6E07C0D9FF08C0DAFFAE
:102CE600000EDB8E12000001A2510001D8A40DD007
:102CF60007C0D9FF08C0DAFF480EDF6E07C0D9FF4C
:102D060008C0DAFF000EDB8E120007C0D9FF08C02C
:102D1600DAFF080EDF6E07C0D9FF08C0DAFF000E23
:102D2600DB8E1200000163AF16D000016651000170
:102D36006711D8B40ED020EE66F001D80AD005008F
:102D4600FA6EDE50FD6EDE50FE6EF850FF6EFA50E3
:102D560012000001639F000E216E1200000E00019A
:102D6600A96F000E8BEC0EF0000E156E41EC18F0FC
:102D76004EEC0FF0A9EC0EF090EC19F0200E23604B
:102D860001D0FAD764B2F8D70001A92B060E0001CC
:102D9600A96503D0000E0001A96F00017C4B7D2BB5
:102DA6007CC037F07DC038F0000E3A6E320E396EB8
:102DB600A8EC0FF037043810D8B437EC13F07CC009
:102DC60037F07DC038F0000E3A6E320E396EA8EC40
:102DD6000FF037503810D8A406D0000E42EC1AF087
:102DE600010E42EC1AF0010E0001A76F00016D39C9
:102DF6000F0B0009D8B408D05A0E00018419D8B4B4
:102E060003D0000E0001A76F0001A7B102D08B9678
:102E160001D08B86010E0001A86F00016F390F0BE0
:102E26000009D8B408D05A0E00018D19D8B403D0C1
:102E3600000E0001A86F0001A85115100001A66F31
:102E46000001A63B8B500001A619EF0BA6198B6E4D
:102E56000001A951C9EC0FF08FD73F6E3750D8B497
:102E660007D03F50020D070EF324D96E000E06D090
:102E76003F50020D740EF324D96E000EF420DA6E64
:102E8600DECF40F0DDCF41F040504110D8A405D050
:102E9600000E376E000E386E120020EE02F0405023
:102EA600D9264150DA2238C0DEFF39C0DDFF20EED8
:102EB60001F04050D9264150DA223AC0DFFF40C027
:102EC600D9FF41C0DAFF400EDF1640C0D9FF41C02E
:102ED600DAFF000EDB8640C0D9FF41C0DAFF000EE4
:102EE600DB8E3750D8B418D03F50020D070EF324AE
:102EF600D96E000EF420DA6EDECF3BF0DDCF3CF06B
:102F0600040E3B183D6E3C503E6E3F50020D070EC0
:102F1600F324D96E000E17D03F50020D740EF32421
:102F2600D96E000EF420DA6EDECF3BF0DDCF3CF03A
:102F3600040E3B183D6E3C503E6E3F50020D740E23
:102F4600F324D96E000EF420DA6E3DC0DEFF3EC0DB
:102F5600DDFF40C037F041C038F01200800E02019C
:102F66002019D8A41200C00E046E7CD0A80E016EE3
:102F76003F0E026E000E066E120E056E1200020164
:102F86002251D8A43ED002012251020D4D0EF32447
:102F9600F66E3E0EF420F76E0900F5CF01F00A003A
:102FA600F5CF02F0020E0124376E000E0220386EB5
:102FB60037C0F6FF38C0F7FFF86A020EF76403D091
:102FC6000800F55005D0F6CFE1FFF7CFE2FFE75056
:102FD600056E030E0124376E000E0220386E37C0D0
:102FE600F6FF38C0F7FFF86A020EF76403D0080050
:102FF600F55005D0F6CFE1FFF7CFE2FFE750066EBA
:103006001200000E046E1200070E0201226124D087
:1030160002012251020D3F0EF324F66E3E0EF420FD
:10302600F76E0900F5CF01F00A00F5CF02F001C0F6
:10303600F6FF02C0F7FFF86A020EF76403D0080035
:10304600F55005D0F6CFE1FFF7CFE2FFE750376E38
:103056003750056E066A1200000E046E1200000E4E
:10306600046E120002012351010AD8B47FD7030A65
:10307600D8B485D7010AD8B4C7D7F1D7A094000E23
:103086000F015F6F000E626E000E0F01536F540E3C
:10309600376E0F0E386E000E3A6E000E396E000E49
:1030A6003C6E010E3B6EF0EC0EF0160E616E9F0E3E
:1030B6000F015B6F7B0E606E000E3F6E070E3F6466
:1030C60001D00ED03F50040D000EF324D96E020E2F
:1030D600F420DA6EDE6ADE6ADE6ADD6A3F2AEED741
:1030E600648C000E0F015C6F6498649C6296000EFF
:1030F600046E000E0001636F000E0001656F000E86
:10310600646F62B6F3D7010E1A6E010E196E000EC9
:10311600186E000E176E000E1F6E000E3F6E010E2B
:103126003F6401D02ED03F50020D070EF324D96E16
:10313600000EF420DA6E000EDE6E000EDD6E3F50DD
:10314600020D740EF324D96E000EF420DA6E000E12
:10315600DE6E000EDD6E3F50010D0D0EF324D96EAE
:10316600000EF420DA6E000EDF6E3F50010D7E0E6B
:10317600F324D96E000EF420DA6E000EDF6E3F2ABD
:10318600CED7080E076E020E086E160E0F01536F8D
:10319600020E0201036F200E026F400E0201016F44
:1031A600040E0201006F0201008F000E286E000E51
:1031B6000001706F000E716F000E726F000E736F5C
:1031C600000E166E000E236E120020EE01F0115056
:1031D600D9261250DA22DF500001A36F0001A35155
:1031E6000001645D000E6559D8A064C0A3F000011B
:1031F600A3510001645F000E655B000E0001A26F23
:1032060014D00001A251010D600EF324D96E020EF6
:10321600F420DA6E60C0E1FF61C0E2FFDFCFE7FFB6
:103226000001604B612B0001A22B0001A35100019C
:10323600A25DD8A0E6D70001645100016511D8B49B
:1032460032D020EE01F00F50D9261050DA22400E6F
:10325600DF6E20EE02F00F50D9261050DA22600EF3
:10326600DE6E020EDD6E11C0D9FF12C0DAFFDFBCC2
:103276000DD00FC0D9FF10C0DAFF480EDF6E0FC0A9
:10328600D9FF10C0DAFF000EDB8E12000FC0D9FF87
:1032960010C0DAFF080EDF6E0FC0D9FF10C0DAFFCC
:1032A600000EDB8E120020EE01F00F50D9261050D2
:1032B600DA22400EDF6E20EE02F00F50D9261050B3
:1032C600DA22200EDE6E020EDD6E0FC0D9FF10C0B0
:1032D600DAFF040EDF6E0FC0D9FF10C0DAFF000E52
:1032E600DB8E0001665100016711D8B40ED020EEC6
:1032F60066F001D80AD00500FA6EDE50FD6EDE508B
:10330600FE6EF850FF6EFA5012000001639F1B50CC
:10331600D8A41200D6EC12F012002350D8A411D073
:10332600000E646E000E606E160E616E9F0E0F012B
:103336005B6F7B0E606E01D0648664A6FDD7010EBE
:10334600236E2304D8B464BA08D0000E626E000E51
:10335600606E60806088020E236E62B460A403D043
:1033660062941CEC0FF064A202D0A194120062B029
:1033760060A005D041EC18F0040E236E629062B88E
:1033860060A802D006EC0FF062AC1AD060AC0ED08A
:10339600000E446E730E436E000E456E000E466EB2
:1033A600000E486E010E476E96EC10F0629CB6EC6D
:1033B6000EF01C50D8A41C061C50D8B4D6EC12F043
:1033C60062BA60AA02D0ECEC0FF062B260A210D032
:1033D6007F0E446E4368000E456E000E466E000E6C
:1033E600486E010E476E96EC10F0000E0F015F6FEF
:1033F600040E236002D0A194120060A63ED0000EF7
:103406000001A56F030E0001A56501D036D062A6A6
:1034160034D063CF26F02630E832E8320F0B1E6E2A
:10342600629626B40AD01E50010D7E0EF324D96E84
:10343600000EF420DA6E000108D01E50010D0D0EAC
:10344600F324D96E000EF420DA6EDF701E50D8A475
:1034560003D032EC12F00ED0000E446E720E436EA4
:10346600260E456E000E466E000E486E000E476E26
:1034760096EC10F00001A52BC5D7A1941200486E5A
:103486004850D8A402D08B9C01D08B922D0EE82EEA
:10349600FED7010ECEEC10F04850090D830EF32432
:1034A600D96E000EF420DA6E420ECEEC10F0DF6E0E
:1034B600DE28D8A40FD04850090D010EF326000EC1
:1034C600F422830EF324D96E000EF420DA6E000E79
:1034D600DF6E54D04850090D010EF326000EF4227B
:1034E600830EF324D96E000EF420DA6E000ECEECB5
:1034F60010F0DF6E4850090D010EF326000EF4227F
:10350600830EF324D96E000EF420DA6E5A0EDE18FE
:10351600D8A434D04850090D020EF326000EF4222A
:10352600830EF3243C6E000EF4203D6E060E3E6EB6
:1035360089EC0FF04850090D020EF326000EF42216
:10354600830EF324D96E000EF420DA6EDECF44F03B
:10355600DDCF45F0441C466E451C476E4850090DAC
:10356600020EF326000EF422830EF324D96E000E0B
:10357600F420DA6E46C0DEFF47C0DDFF4850D8A40F
:1035860002D08B8C01D08B824850090D010EF32698
:10359600000EF422830EF324D96E000EF420DA6EA8
:1035A6005A0EDE18D8B42BD04850090D080EF32653
:1035B600000EF422830EF324D96E000EF420DA6E88
:1035C6001E0EDF6012004850090D010EF326000E94
:1035D600F422830EF324D96E000EF420DA6E5A0E0E
:1035E600DF6E4850090D080EF326000EF422830EF6
:1035F600F324D96E000EF420DA6EDF2A120048504A
:10360600090D080EF326000EF422830EF324D96E5C
:10361600000EF420DA6E000EDF6E1200436E435089
:10362600030F0201A06F4350090D010EF326000E91
:10363600F422830EF324D96E000EF420DA6E5A0EAD
:10364600DE18D8A49FD04350090D020EF326000EB3
:10365600F422830EF324D96E000EF420DA6EDECF48
:10366600A1F2DDCFA2F24350090D830EF324D96EE9
:10367600000EF420DA6E730EDE18D8B40CD0435068
:10368600090D830EF324D96E000EF420DA6E530E64
:10369600DE18D8A417D0A30E376E020E386E43502C
:1036A600090D040EF326000EF422830EF324396E60
:1036B600000EF4203A6E000E3C6E040E3B6E0FECCC
:1036C60010F071D00201A199A19BA19DA19F435029
:1036D600090D020EF326000EF422830EF324D96E92
:1036E600000EF420DA6E0001DFAE02D0010E01D02A
:1036F600000E800DF3500008426E4350090D020E75
:10370600F326000EF422830EF324D96E000EF42065
:10371600DA6E0001DFAA02D0010E01D0000E7F0D85
:10372600F3504224800F0201A56F4350090D020E8B
:10373600F326000EF422830EF324D96E000EF42035
:10374600DA6E0001DFA802D0010E01D0000E800D56
:10375600F3500008426E4350090D020EF326000E88
:10376600F422830EF324D96E000EF420DA6E0001E3
:10377600DFAC02D0010E01D0000E7F0DF3504224C3
:10378600800F09D0000E0201A26F000EA16F7F0EFE
:103796000201A56F7F0E0201A66F7F0E0201A36FC5
:1037A6007F0E0201A46F010E376EA00E386E020E58
:1037B600396E070E3A6E010E30EC17F037C07AF00C
:1037C60038C07BF0120061C2A1F0A3D0151EB3D0A1
:1037D6000201645100019D6F9C6B0201635100015F
:1037E6009E6F9F6B00019C5100019E110B6E0001A4
:1037F6009D5100019F110C6E65C214F09CD0000E05
:10380600DAEC0EF00201A36F010EDAEC0EF0020103
:10381600A46F0BC0A5F20C500201A66F14C0A7F24C
:103826008AD00BC049F00CC04AF01450DBEC14F0FF
:103836000009D8A404D000019C6B9C2B02D0000187
:103846009C6B000E9CB1800E9C6F00019C51000188
:10385600A1130B4A0C2A000E0001A06F29D062C2E8
:1038660080F10BC049F00CC04AF0145052EC11F034
:103876000009D8A404D000019C6B9C2B02D0000147
:103886009C6B000E9CB1800E9C6F00019C51000148
:10389600A1130B4A0C2A4FD00001A151030B2B0D8B
:1038A600F3CFA0F00001A1390F0B040AD8A414D05D
:1038B600A30E376E020E386E0001A051010D000EE8
:1038C600F324396E010EF4203A6E000E3C6E2B0E78
:1038D6003B6E0FEC10F02FD00001A1390F0B050A3B
:1038E600D8A414D00001A051010D000EF324376EA8
:1038F600010EF420386E630E396E020E3A6E000E1B
:103906003C6E2B0E3B6E0FEC10F012000001A1690D
:1039160012D00001A151100AD8B458D7010AD8B460
:1039260057D7030AD8B46BD7010AD8B47AD7070A8F
:10393600D8B495D7B1D7050E0201A06F80C1A2F207
:10394600A1C0A1F2010E376EA00E386E020E396EBE
:103956002E0E3A6E010E30EC17F037C07AF038C0F2
:103966007BF0950E376E000E386EA00E396E020E85
:103976003A6E000E3C6E070E3B6E0FEC10F0120016
:10398600436E43280201A06F4350020D010EF32639
:10399600000EF4226C0EF324D96E000EF420DA6EBB
:1039A6000001DF380F0B0009D8A4DBD04350020D0D
:1039B6006C0EF324D96E000EF420DA6E0001DFA03F
:1039C60003D00201A18302D00201A1934350020D4C
:1039D600010EF326000EF4226C0EF324D96E000EAF
:1039E600F420DA6E0001DFA003D00201A18102D02B
:1039F6000201A1914350020D010EF326000EF4229E
:103A06006C0EF324D96E000EF420DA6E0001DFA2EC
:103A160003D00201A18502D00201A1954350020DF7
:103A26006C0EF324D96E000EF420DA6E0001DFA2CC
:103A360003D00201A18702D00201A1974350020DD3
:103A46006C0EF324D96E000EF420DA6E0001DFA6A8
:103A560003D00201A18902D00201A1994350020DAF
:103A66006C0EF324D96E000EF420DA6E0001DFA48A
:103A760003D00201A18B02D00201A19B4350020D8B
:103A8600010EF326000EF4226C0EF324D96E000EFE
:103A9600F420DA6E0001DFA603D00201A18D02D068
:103AA6000201A19D4350020D010EF326000EF422E1
:103AB6006C0EF324D96E000EF420DA6E0001DFA43A
:103AC60003D00201A18F02D00201A19F4350020D33
:103AD6006C0EF324D96E000EF420DA6E0001DFAC12
:103AE60002D0010E01D0000E800DF3500008426E88
:103AF6004350020D6C0EF324D96E000EF420DA6EDC
:103B06000001DFAE02D0010E01D0000E7F0DF35092
:103B16004224800F0201A26F4350020D6C0EF32463
:103B2600D96E000EF420DA6E0001DFA802D0010E75
:103B360001D0000E800DF3500008426E4350020D76
:103B46006C0EF324D96E000EF420DA6E0001DFAAA3
:103B560002D0010E01D0000E7F0DF3504224800FDB
:103B660007D0000E0201A16F7F0E0201A26F7F0E29
:103B76000201A36F010E376EA00E386E020E396E6B
:103B8600040E3A6E010E30EC17F037C07AF038C0EA
:103B96007BF0120002012205D8A410D002012051A8
:103BA6001F0B0009D8A40AD0048E030E02012119A6
:103BB600D8A402D0010E01D0000E206E02012251BF
:103BC600D8A41200020120511F0B020AD8A4120029
:103BD600020124510F0B0009D8B41200020124512E
:103BE6000F0B4B6E020E4B601200200E2318D8A44A
:103BF6001200048E020124BF1BD0020124510F0BB8
:103C06004B6E4B50020D740EF324D96E000EF42049
:103C1600DA6EDECF4FF0DDCF50F0020124510F0BEC
:103C26004B6E4B50010D7E0EF324D96E000E1AD04A
:103C3600020124510F0B4B6E4B50020D070EF3245D
:103C4600D96E000EF420DA6EDECF4FF0DDCF50F0E5
:103C5600020124510F0B4B6E4B50010D0D0EF32438
:103C6600D96E000EF420DA6EDF504E6E4EB006D0DE
:103C7600FB0E4F144F6EFF0E501404D0040E4F105F
:103C86004F6E5050506E020124BF0BD002012451DA
:103C96000F0B4B6E4B50020D740EF324D96E000EB3
:103CA6000AD0020124510F0B4B6E4B50020D070E2A
:103CB600F324D96E000EF420DA6E4FC0DEFF50C03A
:103CC600DDFF030E02012119D8A431D04FC0D9FF60
:103CD60050C0DAFFDFAE1ED0020124BF0ED00201B3
:103CE60024510F0B4B6E4B50010D7E0EF324D96EF3
:103CF600000EF420DA6E00010CD0020124510F0BE5
:103D06004B6E4B50010D0D0EF324D96E000EF420B0
:103D1600DA6EDF824FC0D9FF50C0DAFF000EDB84B7
:103D26004FC0D9FF50C0DAFF000EDB8E1200040E22
:103D36004F184F6E5050506E4FC0D9FF50C0DAFF2B
:103D4600DFAE1BD04FC0D9FF50C0DAFF7F0EDF16A3
:103D56004FC0D9FF50C0DAFF000EDB8C000E446E58
:103D6600050E436E4FC045F050C046F0000E486E3B
:103D7600020E476E96EC10F006D04FC0D9FF50C029
:103D8600DAFF000EDB8C040E4F184F6E5050506E4B
:103D96004EB206D04FC0D9FF50C0DAFFDFAE33D0E7
:103DA600020124BF0ED0020124510F0B4B6E4B5063
:103DB600010D7E0EF324D96E000EF420DA6E00019A
:103DC6000CD0020124510F0B4B6E4B50010D0D0E02
:103DD600F324D96E000EF420DA6EDF924FC0D9FFBD
:103DE60050C0DAFF3B0EDF16000E446E050E436E22
:103DF6004FC045F050C046F0000E486E020E476EAA
:103E060096EC10F006D04FC0D9FF50C0DAFF3B0E3B
:103E1600DF16020124510F0B4B6E4B50010D530E52
:103E2600F3244C6E0F0EF4204D6E4CC0D9FF4DC0DE
:103E3600DAFFFE0EDF16120000E23F5E3F323FD889
:103E46003FCE3FC43FBA3F863F05010905A1018524
:103E56000179031500250135004501750195080511
:103E660009190129088102050125FF45FF093009C5
:103E760031750895028102C005010905A101850277
:103E860079041500250135004501750195080509D8
:103E9600190129088102050125FF45FF093009316D
:103EA600750895028102C005010905A101850379FE
:103EB60005150025013500450175019510050919FF
:103EC6000129108102050125FF45FF09320935093F
:103ED600300931750895048102C005010905A10163
:103EE60085047906150025013500450175019510F3
:103EF6000509190129108102050125FF45FF09322F
:103F0600093509300931750895048102C00600FF9C
:103F16000901A10185051901292D150026FF007546
:103F260008952D81001901292D9100C02C03500000
:103F3600490043002000470061006D0065007000E5
:103F460061006400200049006E0074006500720084
:103F560066006100630065002803520047004200C6
:103F660041005F00430052005400200053006F00E0
:103F760066007400770061007200650073002E0011
:103F8600090222000101008060090400000103000B
:103F9600000209211101000122E300070581034007
:103FA60000011201000200000040D8045E0001007A
:103FB600010200010A0350005300580032000A03B0
:103FC60050005300580031000A03530046004300D6
:103FD60032000A035300460043003100040309047B
:103FE60053504920535441525420455252000052D6
:093FF6005350204552523D0000D9
:020000040020DA
:08000000FFFFFFFFFFFFFFFF00
:020000040030CA
:0E0000000032011EFF0081FF03C003E0034039
:00000001FF
